:0300000002090AE8
:0C090A00787FE4F6D8FD758115020879AD
:05091C001208DF80FB62
:050921001208DF80FB5D
:050926001208DF80FB58
:05092B001208DF80FB53
:100879001208FC7E097F1C7D0C7B0A1208007E0988
:100889007F217D107B0A1208007E097F267D147B5B
:100899000A1208007E097F2B7D187B0A12080012B4
:0408A900083F80FB89
:0E08FC00E4F514F515F50BF50AF509F50822DB
:10080000EDC3940C4006EDD3941440037F0222C242
:10081000AFA805E654F0F6548F4410F6547FF6E87E
:1008200004F8A60608A607EB20E70FA805E6548FF4
:0F0830004450F6AF057D141208ADD2AF7F002201
:10083F00C2AF851415E515602EE5142403F8E6F50F
:10084F0014D2AFE51504F8E6FE08E6AA06F9120978
:10085F0016C2AFA815E6C45407FFBF05077D14AF36
:0A086F00151208ADD2AF22D2AF225D
:1008DF00C2AFAF81E51504FEA807E6A806F61FA86C
:0C08EF0007E60EA806F6D2AF15811581B1
:0108FB0022DA
:1008AD00A805E6FE700AA607EF2403F8E4F6FF227A
:1008BD00AC06EE2403F8E6FE70F6EC7006A805A66D
:1008CD00078006EC2403F8A607EF2403F8A6067F9D
:0108DD00001A
:0108DE0022F7
:060916008A838982E4736C
:00000001FF
